:10000000002C2008A100F530A0001220F530A0003F
:100010001220F530A0001220F630A0001220A10B13
:100020000328080000000000A00B12280800061199
:100030008700061400000610080006158700061445
:10004000000006102D30A0001220080020301D20D6
:100050004D301D2072301D202E301D2020301D20DF
:1000600042301D2061301D2079301D2042301D207E
:1000700075301D2073301D2020301D2044301D2080
:1000800069301D2067301D2069301D2074301D200F
:1000900061301D206C301D20A83017202D30A000AD
:1000A000122043301D206F301D206E301D20743013
:1000B0001D2072301D206F301D206C301D2020301F
:1000C0001D2053301D2079301D2073301D207430C9
:1000D0001D2065301D206D301D2020301D20763004
:1000E0001D2032301D202E301D2030301D2030309C
:1000F0001D20FA30A0000120FA30A0000120FA30C3
:10010000A0000120FA30A0000120FA30A000012058
:10011000FA30A0000120FA30A0000120FA30A0003F
:10012000012008000A30A0000120051A080022085A
:1001300082079F289F289F289F289F28A128A20ADE
:10014000A228A201051EA228D92008000A30A0007A
:100150000120851A080022088207BF28B328B62884
:10016000B928BC28BF280130A306BF280230A30647
:10017000BF280430A306BF284030A306BF28851E31
:10018000BF288322D9200317831200308D00230853
:100190008C00031783168C130C158B1355308D00B0
:1001A000AA308D008C140C11031383120D1ED62857
:1001B000080022088207E128042929294E297529E7
:1001C000AC29F42120301D2031301D203A301D2073
:1001D000231CEC281D22ED28242220301D20323043
:1001E0001D203A301D20A31CF7281D22F8282422A8
:1001F00020301D2033301D203A301D20231D0229C0
:100200001D22080024220800F4217E301D203130F8
:100210001D203A301D20231C11291D227F301D2056
:10022000142924227F301D2032301D203A301D2019
:10023000A31C1C291D221D29242220301D203330FF
:100240001D203A301D20231D27291D2208002422AD
:100250000800F42120301D2031301D203A301D20AF
:10026000231C34291D22352924227E301D203230C2
:100270001D203A301D20A31C41291D227F301D2046
:10028000442924227F301D2033301D203A301D2088
:10029000231D4C291D22080024220800F4212030AF
:1002A0001D2031301D203A301D20231C59291D22CC
:1002B0005A29242220301D2032301D203A301D20A2
:1002C000A31C64291D22652924227E301D20333081
:1002D0001D203A301D20231D71291D227F301D2035
:1002E000080024227F301D2008002B2220301D20F2
:1002F00020301D2020301D2020301D20231F952957
:1003000020301D2041301D2063301D2074301D2001
:1003100069301D2076301D2061301D2074301D2075
:1003200065301D2064301D20080044301D206530DC
:100330001D2061301D2063301D2074301D20693068
:100340001D2076301D2061301D2074301D20653049
:100350001D2064301D200800582220301D20203030
:100360001D2031301D203A301D2080309F001F1489
:100370001930A00012201F151F19BC291F100C13C3
:100380001E0D031383169E1FC629013E03138312FD
:1003900000262226DF301D2043301D2020301D2066
:1003A00020301D2020301D2020301D2032301D2007
:1003B0003A301D2088309F001F141930A0001220F1
:1003C0001F151F19E1291F100C131E0D031383168F
:1003D0009E1FEB29013E0313831200262226DF30E5
:1003E0001D2043301D200800013017200230A000DE
:1003F000012020301D2020301D2020301D202030E5
:100400001D2020301D2046301D2061301D206E3003
:100410001D2020301D2053301D2074301D206130E0
:100420001D2074301D2075301D2073301D20A83014
:1004300017202D30A000122008004F301D206E30F4
:100440001D2020301D2008004F301D2066301D204B
:1004500066301D200800013017200230A000012066
:1004600020301D2020301D204C301D2069301D20E3
:1004700067301D2068301D2074301D2069301D201C
:100480006E301D2067301D2020301D2053301D2070
:1004900074301D2061301D2074301D2075301D20EA
:1004A00073301D20A83017202D30A0001220080026
:1004B000013017200230A000012020301D20203004
:1004C0001D2020301D2020301D2054301D2065307F
:1004D0001D206D301D2070301D2065301D207230B4
:1004E0001D2061301D2074301D2075301D2072309C
:1004F0001D2065301D2073301D20A83017202D30A1
:10050000A00012200800231C872A8615882A86113D
:10051000A31C8C2A06168D2A0612231D912A8616E4
:10052000922A8612231F962A8617972A8613080076
:10080000031383163F3085008601870104309F0063
:1008100003138312A2012830AA00031783120030A9
:100820008D00031783168C130C14031783120C0806
:1008300003138312A30083220611861006101430BE
:10084000A0000120303017200530A00001203030FA
:1008500017207D30A0001220303017207D30A000FE
:100860001220383017200530A00001200C3017204E
:100870000530A0000120063017200530A00001201F
:10088000013017200230A00001202620013017205F
:100890000230A0000120D920051E9220851EA6202E
:1008A0003230A0000120AA0B4C2C2830AA00D920FD
:0208B0004C2CCE
:100C0000A9000830A800A601A70105302602031C90
:100C10000B2E0330A60705302702031C112E0330CC
:100C2000A707A60DA70D271E172E0130A607A90D91
:100C3000031C1C2E0130A7070F30A705A605A80B23
:100C4000052E08002608303E1D202708303E1D20B6
:020C500008009A
:02400E00723FFF
:00000001FF
