:10000000830100308A0004282030840021301A2027
:100010002130840039301A2083010730ED00CD30C3
:10002000EC00393084006C301E208301F42C04066F
:100030008001840A0406031900341728F0002920DF
:100040008000840A04087006031900341F288312F4
:10005000EC00ED1B34286D1B3C286D088A006C08F1
:10006000EC0A0319ED0A820083136D1883176C08DC
:10007000EC0A84000008080083016D0C1F3983120C
:1000800003178F006C0C8D0083168C170C14000066
:10009000000083120C0883016C1854288312031784
:1000A0008C1B03140E0D83017F3908004D102E396F
:1000B0004210F9307531A0396922E933613A0036CE
:1000C000E6270033201020102010F4296F39653105
:1000D000200020104410E132F431F634F430E432E0
:1000E000200020102010E320693A613B653A00327D
:1000F000E6273E334F002037001FE6273C334F00F2
:100100002037001EBA1920003210001D311F001DBB
:100110002010BA184300EE37723AEC375310F33C14
:10012000653AA036323B31170018EE270010E6275B
:0801300020334F0020370010BE
:1004D0000530831203132202031C702AA2010800B4
:1004E000A20A080083120313AA0003178D008316C3
:1004F0008C130C1483120C080313080083120313CB
:10050000B6000430B700FA30B800B80B852AB70B34
:10051000832AB60B812A080083120313B3019B2A96
:1005200033083007EC003108ED006C080318ED0AC1
:1005300027204123B30A3208330203180800902A07
:10054000F401F5010310F30CF20C031CAE2A700841
:10055000F40771080318710AF5070310F00DF10D87
:100560007208730403190034A22A83120313AA0029
:1005700006108610061114307E223030762330307B
:100580007623303076232A0BC72A3030CC2A2A082B
:10059000023A031DCD2A383076230C307623013001
:1005A00076230630762B83120313A70006118610DC
:1005B000A71FDC2A8717DD2A8713271FE12A0717C1
:1005C000E22A0713A71EE62A8716E72A8712271EA4
:1005D000EB2A0716EC2A07120614A801A80AA80B92
:1005E000EF2A061005307E2A83120313A01CFA2A74
:1005F0008615FB2A8611201DFF2A0616002B0612DF
:10060000A01D042B8616052B8612A108031D0A2B9C
:1006100086130800210B0E2B86170800201E122BB4
:100620008617132B8613831203131030A0060800BD
:1006300083120313AB00831603178C181D2B831230
:1006400003132B0803178D0003132A0803178C00CC
:1006500083168C130C158312031320108B1B20148C
:100660008B135530831603178D00AA308D008C1420
:100670000C1183120313201C3F2B8B1708008B13C4
:10068000080083120313B40006158610B41F4A2B0A
:1006900087174B2B8713341F4F2B0717502B07132C
:1006A000B41E542B8716552B8712341E592B071650
:1006B0005A2B0712B41D5E2B87155F2B8711341D33
:1006C000632B0715642B0711B41C682B8714692B47
:1006D0008710341C6D2B07146E2B07100614B50100
:1006E000B50AB50B712B061001307E2A8312031355
:1006F000B00006118610B01F7F2B8717802B871341
:10070000301F842B0717852B0713B01E892B8716E4
:100710008A2B8712301E8E2B07168F2B0712B01DC7
:10072000932B8715942B8711301D982B0715992B28
:100730000711B01C9D2B87149E2B8710301CA22BF9
:100740000714A32B07100614B101B10AB10BA62B95
:10075000061005307E2ADD2B0230A0060030A018DE
:100760000130AA000030182B0430A00600302019F8
:100770000130AA000130182B0830A0060030A01963
:100780000130AA000230182BA101A10AD12B02309E
:10079000A100D12B21080319C42B013A0319C72B3F
:1007A000A1012108AA000330182B2030A006003038
:1007B000A01A0130AA000430182B83120313220858
:1007C000013A0319AC2B033A0319B42B013A03196C
:1007D000BC2B073A0319CA2B013A031D0800D52B7D
:1007E000831203133208023E840083130A30F2009E
:1007F000F3013108F1003008F00093277008800001
:100800003208023E840083130008B002031CB103C7
:10081000320A840083136430F200F3013108F100DE
:100820003008F000932770088000320A8400831398
:100830000008B002031CB1030A30F100320A840040
:10084000831300085D278000320884008313E8309A
:10085000F2000330F3003108F1003008F000932774
:10086000700880003208840083130008B002031C63
:10087000B1036430F10032088400831300085D275F
:10088000800032088400831330308007320A8400ED
:100890008313303080073208023E840083133030E7
:1008A00080073208840083130008303A031D0800D3
:1008B000320A840083130008303A031D6B2C320A7D
:1008C0008400831320308000F000320884008313FA
:1008D00070088000080032088400831320308000F4
:1008E00008008030831203139F001F140A30B000E9
:1008F000B00B782C1F151F197B2C1F100C131E0812
:10090000A40083161E088312A30088309F001F14C2
:100910000A30B000B00B8A2C1F151F198D2C1F1028
:100920000C131E08A60083161E088312A500F430BF
:10093000F2000130F3002408F1002308F000A022A7
:100940000A30F0000310F50CF40CF00BA22C740824
:10095000A3007508A400F430F2000130F30026086B
:10096000F1002508F000A0220A30F0000310F50C79
:10097000F40CF00BB62C7408A5007508A600A01E98
:1009800008000930F200F3012408F1002308F00008
:10099000A0227408F0007508F1000530F200003064
:1009A000F301932720307407A300003003180130AF
:1009B0007507A4000930F200F3012608F1002508AC
:1009C000F000A0227408F0007508F1000530F20074
:1009D0000030F301932720307407A500003003187E
:1009E00001307507A600080083120313A801A901AE
:1009F000A701FF30831685004030860087018430D0
:100A00009F008312A20100307222003803190A2DC0
:100A1000A0140B2DA0100130722200380319122DE2
:100A20002015132D201102307222003803191A2DBF
:100A3000A0151B2DA01103307222A10004307222D8
:100A400000380319252DA016262DA012F4220230FD
:100A5000B522AC30B0004030B1001330B2008C226F
:100A6000A83076231530B0004130B1001430B20008
:100A70008C22FA307E22FA307E22FA307E22FA3040
:100A80007E22FA307E22FA307E22FA307E22FA303E
:100A90007E22FA307E22FA307E22FA307E22FA302E
:100AA0007E228425851A5F2D0A307E22851A5B2DD1
:100AB000AB23F4228425851E5B2D0A307E22051A85
:100AC0006B2D0A307E22051A672D68228425051EAB
:100AD000672D0A307E2229082804031D752D8425E0
:100AE000E830A8000330A900792DA8080319A9034C
:100AF000A803A708031D802DF4223230A700812D02
:100B0000A70305307E22522D013076231F2F393066
:100B1000B0008030B1000F30B2008C22A8307623B4
:100B20001130B0004130B1000330B2008C22A01867
:100B30009D2D2E30F0004130A02D3330F00041309B
:100B4000F100700883120313B0007108B100043083
:100B5000B2008C220930B0004130B1000230B20046
:100B60008C222019B72D2E30F0004130BA2D3330B1
:100B7000F0004130F100700883120313B0007108D7
:100B8000B1000430B2008C220430B0004130B1001A
:100B90000230B2008C22A019D12DC030F0004030BC
:100BA000D42D2A30F0004130F10070088312031375
:100BB000B0007108B1000330B2008C2A3930B000A7
:100BC0008030B1000F30B2008C22A83076230C3078
:100BD000B0004130B1000330B2008C22A018F42DD7
:100BE000FA30F0004030F72DFF30F0004030F100D7
:100BF000700883120313B0007108B1000430B20012
:100C00008C220930B0004130B1000230B2008C2299
:100C100020190E2E2E30F0004130112E3330F0000E
:100C20004130F100700883120313B0007108B10065
:100C30000430B2008C220430B0004130B1000230E8
:100C4000B2008C22A019282EC030F00040302B2E8C
:100C50002A30F0004130F100700883120313B00015
:100C60007108B1000330B2008C2A3930B0008030F6
:100C7000B1000F30B2008C22A83076231130B000C2
:100C80004130B1000330B2008C22A0184B2EF0305E
:100C9000F00040304E2EF530F0004030F10070088A
:100CA00083120313B0007108B1000430B2008C222B
:100CB0000930B0004130B1000230B2008C2220195E
:100CC000652EFA30F0004030682EFF30F0004030E2
:100CD000F100700883120313B0007108B1000430F2
:100CE000B2008C220430B0004130B1000230B200BA
:100CF0008C22A0197F2EC030F0004030822E2A3086
:100D0000F0004130F100700883120313B000710845
:100D1000B1000330B2008C2A3930B0008030B1000D
:100D20000F30B2008C22A83076231130B000413051
:100D3000B1000330B2008C22A018A22E2E30F00099
:100D40004130A52E3330F0004130F100700883129D
:100D50000313B0007108B1000430B2008C220930D6
:100D6000B0004130B1000230B2008C222019BC2EFC
:100D7000F030F0004030BF2EF530F0004030F10090
:100D8000700883120313B0007108B1000430B20080
:100D90008C220430B0004130B1000230B2008C220D
:100DA000A019D62EFA30F0004030D92EFF30F000D6
:100DB0004030F100700883120313B0007108B100D5
:100DC0000430B2008C2A4930B0008030B1001130BC
:100DD000B2008C22A830762321080319F92E013A9B
:100DE0000319002FC430B0004030B1000C30B20005
:100DF0008C2AD130B0004030B1000F30B2008C2AC4
:100E0000E130B0004030B1000E30B2008C2A4630E4
:100E100041230730B0004130B1000430B2008C22D1
:100E20002D30B0008030B1000330B2008C22DF30B2
:100E30004123A01A1D2F43301E2F4630412B22087C
:100E40000319872D013A0319DE2D033A0319352EB4
:100E5000013A03198C2E073A0319E32E013A031DB8
:100E600008005B30B0008030B1001030B2008C223E
:100E7000A830762371242308B0002408B1002A305A
:100E8000B200F0232508B0002608B1002D30B200D2
:100E9000F0231030B0004130B1000430B2008C2299
:100EA0002A30B0008030B1000330B2008C22DF3035
:100EB0004123A01A072F4330082FF000F40103103C
:100EC000FD307107031C842FF301F0307105031D01
:100ED0006C2F0430F300F10EF2010310F30AF10D50
:100EE000031C6E2FF10C710870020318F000F20D54
:100EF000F30B722FF41F7E2FF209F20A7208F41F0F
:100F00000800F009F00A0800F10C03188D2FF10C0D
:100F1000031CF0010310F00C031C03107008F20016
:100F2000F001F00D7A2FF601F401F5017208730457
:100F3000031D9D2FF001F10100341F30F604031052
:100F4000F60AF20DF30D031CA02FF30CF20C73083C
:100F50007102031DAD2F72087002031CB52F7208B9
:100F6000F0027308031C730AF102F40DF50DF60B81
:100F7000F61AA52FF61FC12FF409F40A0319F50379
:100F8000F5097408F2007508F300761F0034F009C3
:100F9000F00A0319F103F10900342034203420341D
:100FA00020342034463461346E3420345334743465
:100FB00061347434753473340034203420344C3448
:100FC000693467346834743469346E346734203477
:100FD00053347434613474347534733400342034CD
:100FE000203420342034543465346D347034653406
:100FF000723461347434753472346534733400344B
:02400E00723FFF
:00000001FF
